S021000044697374616E6365204D6561737572696E672053797374656D2E7372656368
S11300000C942A000C9447000C9447000C9447006D
S11300100C9447000C9447000C9447000C94470040
S11300200C9447000C9447000C9447000C94470030
S11300300C9447000C9447000C9447000C94470020
S11300400C9447000C9447000C9447000C94470010
S11300500C94470011241FBECFE5D8E0DEBFCDBF0E
S113006010E0A0E6B0E0E6E0F9E002C005900D92F1
S1130070A039B107D9F710E0A0E9B0E001C01D92A2
S1130080A039B107E1F70E94F5020C9481040C94A5
S11300900000823451F1833420F4813409F07BC0B0
S11300A007C0833409F43EC0843409F074C057C0D7
S11300B0413069F42AB381E090E0AC0102C0440FFE
S11300C0551F6A95E2F7BA01622B6ABB08952AB3F9
S11300D081E090E0AC0102C0440F551F6A95E2F73D
S11300E0BA01609562236ABB0895413069F427B36D
S11300F081E090E0AC0102C0440F551F6A95E2F71D
S1130100BA01622B67BB089527B381E090E0AC018C
S113011002C0440F551F6A95E2F7BA016095622345
S113012067BB0895413069F424B381E090E0AC01E9
S113013002C0440F551F6A95E2F7BA01622B64BBF3
S1130140089524B381E090E0AC0102C0440F551F30
S11301506A95E2F7BA016095622364BB0895413061
S113016069F421B381E090E0AC0102C0440F551F53
S11301706A95E2F7BA01622B61BB089521B381E06D
S113018090E0AC0102C0440F551F6A95E2F7BA0132
S11301906095622361BB0895823461F0833418F45E
S11301A0813469F405C0833439F0843441F406C0E1
S11301B06ABB089567BB089564BB089561BB089545
S11301C0823451F1833420F4813409F07BC007C0B8
S11301D0833409F43EC0843409F074C057C04130FC
S11301E069F42BB381E090E0AC0102C0440F551FC9
S11301F06A95E2F7BA01622B6BBB08952BB381E0D9
S113020090E0AC0102C0440F551F6A95E2F7BA01B1
S1130210609562236BBB0895413069F428B381E093
S113022090E0AC0102C0440F551F6A95E2F7BA0191
S1130230622B68BB089528B381E090E0AC0102C052
S1130240440F551F6A95E2F7BA016095622368BBB3
S11302500895413069F425B381E090E0AC0102C017
S1130260440F551F6A95E2F7BA01622B65BB0895E6
S113027025B381E090E0AC0102C0440F551F6A959C
S1130280E2F7BA016095622365BB0895413069F4D1
S113029022B381E090E0AC0102C0440F551F6A957F
S11302A0E2F7BA01622B62BB089522B381E090E0C9
S11302B0AC0102C0440F551F6A95E2F7BA0160957C
S11302C0622362BB0895823461F0833418F481346C
S11302D069F405C0833439F0843441F406C06BBB3F
S11302E0089568BB089565BB089562BB0895823480
S11302F0F1F0833420F4813409F04FC006C0833414
S113030041F1843409F049C036C029B381E090E05A
S1130310062E02C0880F991F0A94E2F730E0822368
S1130320932302C0959587956A95E2F7089526B3BD
S113033081E090E0062E02C0880F991F0A94E2F72C
S113034030E08223932302C0959587956A95E2F75E
S1130350089523B381E090E0062E02C0880F991F10
S11303600A94E2F730E08223932302C0959587959F
S11303706A95E2F7089520B381E090E0062E02C06A
S1130380880F991F0A94E2F730E08223932302C076
S1130390959587956A95E2F7089580E008958234EB
S11303A061F0833418F4813471F405C0833439F076
S11303B0843449F406C089B3089586B3089583B399
S11303C0089580B3089580E008958234B9F08334A9
S11303D018F48134C9F505C08334E9F08434A1F5F7
S11303E027C02BB381E090E0AC0102C0440F551F3D
S11303F06A95E2F7BA0162276BBB089528B381E0DE
S113040090E0AC0102C0440F551F6A95E2F7BA01AF
S1130410622768BB089525B381E090E0AC0102C077
S1130420440F551F6A95E2F7BA01622765BB089528
S113043022B381E090E0AC0102C0440F551F6A95DD
S1130440E2F7BA01622762BB0895823451F1833422
S113045020F4813409F07BC007C0833409F43EC022
S1130460843409F074C057C0413069F42BB381E07F
S113047090E0AC0102C0440F551F6A95E2F7BA013F
S1130480622B6BBB08952BB381E090E0AC0102C0FA
S1130490440F551F6A95E2F7BA01609562236BBB5E
S11304A00895413069F428B381E090E0AC0102C0C2
S11304B0440F551F6A95E2F7BA01622B68BB089591
S11304C028B381E090E0AC0102C0440F551F6A9547
S11304D0E2F7BA016095622368BB0895413069F47C
S11304E025B381E090E0AC0102C0440F551F6A952A
S11304F0E2F7BA01622B65BB089525B381E090E071
S1130500AC0102C0440F551F6A95E2F7BA01609529
S1130510622365BB0895413069F422B381E090E021
S1130520AC0102C0440F551F6A95E2F7BA01622B71
S113053062BB089522B381E090E0AC0102C0440F95
S1130540551F6A95E2F7BA016095622362BB08956C
S11305506F70823481F0833418F48134F1F405C06F
S1130560833479F08434C9F412C08BB3807F8BBB9D
S11305708BB3862B8BBB88B3807F88BB88B3862BD9
S113058088BB85B3807F85BB85B3862B85BB82B34F
S1130590807F82BB82B3682B62BB08956295607FC3
S11305A0823481F0833418F48134F1F405C0833447
S11305B079F08434C9F412C08BB38F708BBB8BB3C6
S11305C0862B8BBB88B38F7088BB88B3862B88BB84
S11305D085B38F7085BB85B3862B85BB82B38F7043
S11305E082BB82B3682B62BB08950E94B60384E485
S11305F067E041E00E94490084E466E040E00E9434
S1130600490010E201EC0F2EF1E8BF2EF02D0F2E61
S1130610F0E8CF2EF4E8DF2EFEE1EF2EF0E0FF2E1F
S1130620F02D0F2EFDE68F2EF0E09F2EF02D0F2ED5
S1130630FEE76F2EF0E07F2EF02D0F2EF0E64F2E0A
S1130640F0E05F2EF02D0F2EFAE02F2E3324F02D44
S11306501FBC18BF84E467E041E00E94E00080E131
S11306608A95F1F700C084E467E040E00E94E0006E
S113067090E19A95F1F700C00EBD08B605FEFDCFD6
S113068086B597B518BFBEBC08B605FEFDCF66B5E6
S113069077B518BF1EBC681B790B80E090E028E298
S11306A037E840E050E00E942C04A70196010E9424
S11306B05F04E9012135310500F50E941104C201EE
S11306C00E940204CE01B1010E944B04C82F862F60
S11306D0805D0E94F6038C2F805D0E94F6038AE6FB
S11306E090E00E9402048FE996E8A1E081509040D6
S11306F0A040E1F700C00000ABCF0E941104C40188
S11307000E94020482E060E00E941B04C3010E9474
S113071002048FE996E8A1E081509040A040E1F7FF
S113072000C0000095CF81E460E041E00E94E00059
S11307308FE99FE00197F1F700C0000081E460E0D9
S113074040E00E94E0008FE99FE00197F1F700C0CC
S113075000000895682F83E40E94630181E462E04D
S113076040E00E94E0000E94930308958FEF91EE11
S1130770A4E081509040A040E1F700C0000083E471
S113078061E00E94CC0081E460E041E00E94490005
S113079081E461E041E00E94490081E462E041E0DB
S11307A00E94490081E461E040E00E94E00088E3A7
S11307B00E94AA03AFECB7E01197F1F700C0000064
S11307C08EE00E94AA038FEC97E00197F1F700C036
S11307D0000081E00E94AA03AFE1BEE41197F1F7A3
S11307E000C0000086E00E94AA030895682F83E4F5
S11307F00E94630181E462E041E00E94E0000E9403
S113080093030895CF93DF93EC018881882331F01B
S113081021960E94F60389918823D9F7DF91CF911D
S1130820089581E00E94AA038FE19EE40197F1F705
S113083000C000000895683270F4813019F08230ED
S113084051F405C0862F80580E94AA030895862F6C
S113085080540E94AA030895629FD001739FF001FF
S1130860829FE00DF11D649FE00DF11D929FF00D3C
S1130870839FF00D749FF00D659FF00D9927729F73
S1130880B00DE11DF91F639FB00DE11DF91FBD01FE
S1130890CF0111240895AA1BBB1B51E107C0AA1F55
S11308A0BB1FA617B70710F0A61BB70B881F991F0D
S11308B05A95A9F780959095BC01CD010895A1E2C0
S11308C01A2EAA1BBB1BFD010DC0AA1FBB1FEE1FC6
S11308D0FF1FA217B307E407F50720F0A21BB30B11
S11308E0E40BF50B661F771F881F991F1A9469F78D
S11308F060957095809590959B01AC01BD01CF01E9
S10909000895F894FFCFF6
S113090664697374616E63653D00636D004E6F20A8
S11309164F626A65637420466F756E642C004D6180
S1130926784465746563742E2E203830636D000038
S9030000FC
