S01200004D6173746572436F64652E737265632B
S11300000C942A000C9447000C9447000C9447006D
S11300100C9447000C9447000C9447000C94470040
S11300200C9447000C9447000C9447000C94470030
S11300300C9447000C9447000C9447000C94470020
S11300400C9447000C9447000C9447000C94470010
S11300500C94470011241FBECFE5D8E0DEBFCDBF0E
S113006012E0A0E6B0E0EEE0F8E102C005900D92E7
S1130070A038B107D9F712E0A0E8B2E001C01D92A0
S1130080A038B107E1F70E944F040C94050C0C94BE
S11300900000823451F1833420F4813409F07BC0B0
S11300A007C0833409F43EC0843409F074C057C0D7
S11300B0413069F42AB381E090E0AC0102C0440FFE
S11300C0551F6A95E2F7BA01622B6ABB08952AB3F9
S11300D081E090E0AC0102C0440F551F6A95E2F73D
S11300E0BA01609562236ABB0895413069F427B36D
S11300F081E090E0AC0102C0440F551F6A95E2F71D
S1130100BA01622B67BB089527B381E090E0AC018C
S113011002C0440F551F6A95E2F7BA016095622345
S113012067BB0895413069F424B381E090E0AC01E9
S113013002C0440F551F6A95E2F7BA01622B64BBF3
S1130140089524B381E090E0AC0102C0440F551F30
S11301506A95E2F7BA016095622364BB0895413061
S113016069F421B381E090E0AC0102C0440F551F53
S11301706A95E2F7BA01622B61BB089521B381E06D
S113018090E0AC0102C0440F551F6A95E2F7BA0132
S11301906095622361BB0895823461F0833418F45E
S11301A0813469F405C0833439F0843441F406C0E1
S11301B06ABB089567BB089564BB089561BB089545
S11301C0823451F1833420F4813409F07BC007C0B8
S11301D0833409F43EC0843409F074C057C04130FC
S11301E069F42BB381E090E0AC0102C0440F551FC9
S11301F06A95E2F7BA01622B6BBB08952BB381E0D9
S113020090E0AC0102C0440F551F6A95E2F7BA01B1
S1130210609562236BBB0895413069F428B381E093
S113022090E0AC0102C0440F551F6A95E2F7BA0191
S1130230622B68BB089528B381E090E0AC0102C052
S1130240440F551F6A95E2F7BA016095622368BBB3
S11302500895413069F425B381E090E0AC0102C017
S1130260440F551F6A95E2F7BA01622B65BB0895E6
S113027025B381E090E0AC0102C0440F551F6A959C
S1130280E2F7BA016095622365BB0895413069F4D1
S113029022B381E090E0AC0102C0440F551F6A957F
S11302A0E2F7BA01622B62BB089522B381E090E0C9
S11302B0AC0102C0440F551F6A95E2F7BA0160957C
S11302C0622362BB0895823461F0833418F481346C
S11302D069F405C0833439F0843441F406C06BBB3F
S11302E0089568BB089565BB089562BB0895823480
S11302F0F1F0833420F4813409F04FC006C0833414
S113030041F1843409F049C036C029B381E090E05A
S1130310062E02C0880F991F0A94E2F730E0822368
S1130320932302C0959587956A95E2F7089526B3BD
S113033081E090E0062E02C0880F991F0A94E2F72C
S113034030E08223932302C0959587956A95E2F75E
S1130350089523B381E090E0062E02C0880F991F10
S11303600A94E2F730E08223932302C0959587959F
S11303706A95E2F7089520B381E090E0062E02C06A
S1130380880F991F0A94E2F730E08223932302C076
S1130390959587956A95E2F7089580E008958234EB
S11303A061F0833418F4813471F405C0833439F076
S11303B0843449F406C089B3089586B3089583B399
S11303C0089580B3089580E008958234B9F08334A9
S11303D018F48134C9F505C08334E9F08434A1F5F7
S11303E027C02BB381E090E0AC0102C0440F551F3D
S11303F06A95E2F7BA0162276BBB089528B381E0DE
S113040090E0AC0102C0440F551F6A95E2F7BA01AF
S1130410622768BB089525B381E090E0AC0102C077
S1130420440F551F6A95E2F7BA01622765BB089528
S113043022B381E090E0AC0102C0440F551F6A95DD
S1130440E2F7BA01622762BB0895823451F1833422
S113045020F4813409F07BC007C0833409F43EC022
S1130460843409F074C057C0413069F42BB381E07F
S113047090E0AC0102C0440F551F6A95E2F7BA013F
S1130480622B6BBB08952BB381E090E0AC0102C0FA
S1130490440F551F6A95E2F7BA01609562236BBB5E
S11304A00895413069F428B381E090E0AC0102C0C2
S11304B0440F551F6A95E2F7BA01622B68BB089591
S11304C028B381E090E0AC0102C0440F551F6A9547
S11304D0E2F7BA016095622368BB0895413069F47C
S11304E025B381E090E0AC0102C0440F551F6A952A
S11304F0E2F7BA01622B65BB089525B381E090E071
S1130500AC0102C0440F551F6A95E2F7BA01609529
S1130510622365BB0895413069F422B381E090E021
S1130520AC0102C0440F551F6A95E2F7BA01622B71
S113053062BB089522B381E090E0AC0102C0440F95
S1130540551F6A95E2F7BA016095622362BB08956C
S11305506F70823481F0833418F48134F1F405C06F
S1130560833479F08434C9F412C08BB3807F8BBB9D
S11305708BB3862B8BBB88B3807F88BB88B3862BD9
S113058088BB85B3807F85BB85B3862B85BB82B34F
S1130590807F82BB82B3682B62BB08956295607FC3
S11305A0823481F0833418F48134F1F405C0833447
S11305B079F08434C9F412C08BB38F708BBB8BB3C6
S11305C0862B8BBB88B38F7088BB88B3862B88BB84
S11305D085B38F7085BB85B3862B85BB82B38F7043
S11305E082BB82B3682B62BB08958EBB9FBB6DBB7D
S11305F0E29AE19AE199FECF08958EBB9FBBE09AFF
S11306008DB3089584E460E041E00E94490084E4ED
S113061061E041E00E94490084E462E041E00E941C
S1130620490084E463E041E00E94490084E464E01A
S113063040E00E94490084E465E040E00E944900F3
S113064084E466E040E00E94490084E467E040E01E
S11306500E94490084E464E041E00E94250284E4AD
S113066065E041E00E94250284E466E041E00E94E6
S1130670250284E467E041E00E9425020895FF9288
S11306800F931F93CF93DF93CDB7DEB760970FB669
S1130690F894DEBF0FBECDBFDE011196E0E6F0E0B8
S11306A080E101900D928150E1F7FF2484E460E041
S11306B041E00E94E00084E461E041E00E94E00047
S11306C084E462E041E00E94E00084E463E041E00D
S11306D00E94E00084E46F2D40E00E94E00010E0FE
S11306E0012F0C5F84E4602F0E9477018823C1F4FA
S11306F08FE39CE90197F1F700C0000084E4602FC8
S11307000E9477018823D1F3EF2DF0E0EE0FFF1F55
S1130710EE0FFF1FE10FF11DEC0FFD1F818104C0DF
S11307201F5F1430E9F60CC060960FB6F894DEBF74
S11307300FBECDBFDF91CF911F910F91FF90089510
S1130740F39494E0F91609F0B1CF8FEFEDCF82E482
S113075060E041E00E94E0008FE99FE00197F1F73B
S113076000C0000082E460E040E00E94E0008FE905
S11307709FE00197F1F700C000000895682F81E41D
S11307800E94630182E462E040E00E94E0000E9473
S1130790A70308958FEF91EEA4E081509040A0400C
S11307A0E1F700C0000081E461E00E94CC0082E433
S11307B060E041E00E94490082E461E041E00E947F
S11307C0490082E462E041E00E94490082E461E081
S11307D040E00E94E00088E30E94BE03AFECB7E073
S11307E01197F1F700C000008EE00E94BE038FEC69
S11307F097E00197F1F700C0000081E00E94BE037A
S1130800AFE1BEE41197F1F700C0000086E00E945A
S1130810BE030895682F81E40E94630182E462E0CC
S113082041E00E94E0000E94A7030895CF93DF9364
S1130830EC018881882331F021960E940A04899171
S11308408823D9F7DF91CF91089581E00E94BE03F8
S11308508FE19EE40197F1F700C00000089568322B
S113086070F4813019F0823051F405C0862F81581C
S11308700E94BE030895862F81540E94BE030895EA
S113088041E00E944900089541E00E94E00008957B
S113089040E00E94E00008950E94E501089583E489
S11308A090E060E070E00E94400483E490E061E046
S11308B070E00E94400483E490E062E070E00E94F3
S11308C040040E94CA030E9402030E94950B80E721
S11308D090E00E94160482E061E00E942F0480E808
S11308E090E00E9416042FEF39E648E12150304091
S11308F04040E1F700C000000E94250480E290E03F
S11309000E94FD028F3F39F085E290E00E94FD02D3
S11309108F3F09F0D9C08CE890E00E94160482E071
S113092061E00E942F0486E990E00E9416048FEF94
S113093099E6A8E181509040A040E1F700C0000092
S11309400E94250481EA90E00E94160482E061E09E
S11309500E942F0480EB90E00E941604C1E2D0E0D4
S11309600E943F03182F8F3FD9F30E940A042FEFF0
S113097032E547E0215030404040E1F700C000003C
S11309806C2F655182E00E942F048AE20E940A04BF
S11309908FEF90E7A2E081509040A040E1F700C0C3
S11309A00000CE01612F0E94F5022196C532D105C7
S11309B0B9F680E290E060E00E94F5020E9425040E
S11309C08CEB90E00E9416042FEF34E34CE02150AE
S11309D030404040E1F700C000000E94250487EC4D
S11309E090E00E94160482E061E00E942F0486EDEC
S11309F090E00E94160406E210E00E943F03D82F04
S1130A008F3FD9F30E940A048FEF92E5A7E081504B
S1130A109040A040E1F700C00000602F6A5182E0DE
S1130A200E942F048AE20E940A042FEF30E742E07A
S1130A30215030404040E1F700C00000C8016D2F54
S1130A400E94F5020F5F1F4F0A321105B1F685E2CD
S1130A5090E060E00E94F5020E9425048CEB90E097
S1130A600E9416048FEF94E3ACE081509040A040C4
S1130A70E1F700C000000E94250410E003E00F2EFF
S1130A80F4E3AF2EF1E0BF2EF02D0F2EFBE7EF2E97
S1130A90F2E0FF2EF02D0F2EF9E58F2EF1E09F2EC0
S1130AA0F02D0F2EF8E66F2EF1E07F2EF02D0F2E95
S1130AB0FCE74F2EF2E05F2EF02D0F2EFDE72F2ED8
S1130AC0F2E03F2EF02D07C080E390E00E94FD028B
S1130AD0182FDFEFD3CF113009F049C00E9425044D
S1130AE082EE90E00E94160482E061E00E942F04EE
S1130AF083E490E062E070E00E94440480EF90E0C0
S1130B000E94160404E110E00F2EFAE0CF2EDD243B
S1130B10F02D82E066E00E942F04C801B6010E9415
S1130B20DE0BC82F862F805D0E940A048C2F805D07
S1130B300E940A0486EF90E00E9416042FEF39E623
S1130B4048E1215030404040E1F700C0000001502E
S1130B501040F9F683E490E062E070E00E944804FB
S1130B6080E390E060E00E94F50200E010E00E9463
S1130B7025048FEF90E00E94160482E061E00E9459
S1130B802F048CE091E00E941604DF3F29F40E94B8
S1130B903F038F3FE1F3D82F8D2F8053823088F0AD
S1130BA00E9425048CE191E00E9416048FEF99E6DF
S1130BB0A8E181509040A040E1F700C00000DFEFC1
S1130BC08ACFD03321F0D13309F085CFA6C00E945B
S1130BD0250489E291E00E94160482E061E00E940B
S1130BE02F04C5010E9416042FEF31EE44E021507A
S1130BF030404040E1F700C000006701CCE00E94B3
S1130C003F03D6018C938F3FD1F30E940A042FEF48
S1130C1032E547E0215030404040E1F700C0000099
S1130C2082E06C2F0E942F048AE20E940A048FEF54
S1130C3090E7A2E081509040A040E1F700C000009E
S1130C40CF5F0894C11CD11CC031C9F681E290E089
S1130C500E94FD02D7019C918917B9F582E290E0C8
S1130C600E94FD02F2019081891779F583E290E0F8
S1130C700E94FD02D1019C91891739F584E290E02C
S1130C800E94FD0290917E028917F9F40E942504C6
S1130C9080E491E00E94160482E061E00E942F0447
S1130CA08EE491E00E9416042FEF34E34CE02150CF
S1130CB030404040E1F700C0000083E490E060E091
S1130CC070E00E944404D0E0E2C4C02FC150E9F0B7
S1130CD00E942504C4010E94160482E061E00E947F
S1130CE02F04C3010E941604802F815D0E940A0410
S1130CF08FEF99E6A8E181509040A040E1F700C051
S1130D0000000E9425040C2FE6CE80E390E060E012
S1130D100E94F5020C2F11E0DECE0E94250484E728
S1130D2091E00E94160482E061E00E942F04C50154
S1130D300E9416042FEF31EE44E021503040404031
S1130D40E1F700C000006701CCE00E943F03D60138
S1130D508C938F3FD1F30E940A042FEF32E547E0D2
S1130D60215030404040E1F700C0000082E06C2F89
S1130D700E942F048AE20E940A048FEF90E7A2E007
S1130D8081509040A040E1F700C00000CF5F08947C
S1130D90C11CD11CC031C9F686E290E00E94FD025C
S1130DA0D7019C918917B9F587E290E00E94FD0272
S1130DB0F2019081891779F588E290E00E94FD02A2
S1130DC0D1019C91891739F589E290E00E94FD02D6
S1130DD090917E028917F9F40E94250480E491E041
S1130DE00E94160482E061E00E942F048FE791E0E4
S1130DF00E9416042FEF34E34CE021503040404071
S1130E00E1F700C0000083E490E061E070E00E943C
S1130E104404D1E03CC4C02FC150E9F00E94250431
S1130E20C4010E94160482E061E00E942F04C30101
S1130E300E941604802F815D0E940A048FEF99E6B8
S1130E40A8E181509040A040E1F700C000000E945A
S1130E5025040C2F40CE0E94250480E390E060E03E
S1130E600E94F5020C2F11E036CE08E210E00832A1
S1130E70110509F4CAC10932110578F401301105CC
S1130E8009F47CC00130110508F10230110509F4A0
S1130E90E2C00330110559F74BC10B32110509F4B7
S1130EA0CAC20C32110540F40932110509F4E7C134
S1130EB00A321105E1F652C291E00F3A190709F41A
S1130EC0F3C2A1E0003B1A0791F674C30F2EFAE8AF
S1130ED0EF2EF1E0FF2EF02D0F2EFAE9AF2EF1E008
S1130EE0BF2EF02D0F2EF9EA8F2EF1E09F2EF02D5C
S1130EF00E942504C7010E94160482E061E00E945A
S1130F002F04DD2321F4C5010E94160405C0D1304D
S1130F1019F4C4010E9416040E943F03C82F8F3F96
S1130F20D9F32FEF30E742E0215030404040E1F761
S1130F3000C00000813309F4C5C3823309F4C5C37A
S1130F40833309F4C5C3843331F4D13009F4C3C302
S1130F50DD2309F4C3C30E942504C6010E941604BC
S1130F608FEF94E3ACE081509040A040E1F700C0E3
S1130F700000C153C43008F0BBCF79CF05EC11E0B9
S1130F800F2EF1EDAF2EF1E0BF2EF02D0F2EFEEC63
S1130F908F2EF1E09F2EF02D0F2EF5EDEF2EF1E0C8
S1130FA0FF2EF02D0E942504C8010E94160481E141
S1130FB00E94B40B2FEF30E742E021503040404014
S1130FC0E1F700C000008FEF0E94C10B813021F4D3
S1130FD0C4010E94160403C0C5010E94160482E0E5
S1130FE061E00E942F04C7010E9416040E943F037F
S1130FF0C82F8F3FD9F38FEF90E7A2E08150904044
S1131000A040E1F700C00000C13321F481E20E9456
S1131010B40B67C3C23321F481E30E94B40B61C3F0
S1131020CF3F09F4BFCFC03309F45BC30E9425044A
S1131030C6010E9416042FEF34E34CE021503040E7
S11310404040E1F700C00000C053C33008F0AACF0D
S113105000E010E00CCF06EE11E00F2EF1EDAF2E04
S1131060F1E0BF2EF02D0F2EFEEC8F2EF1E09F2E1F
S1131070F02D0F2EF5EDEF2EF1E0FF2EF02D0E9456
S11310802504C8010E94160482E10E94B40B8FEF6C
S113109090E7A2E081509040A040E1F700C000003A
S11310A08FEF0E94C10B813021F4C4010E94160409
S11310B003C0C5010E94160482E061E00E942F046F
S11310C0C7010E9416040E943F03C82F8F3FD9F323
S11310D02FEF30E742E0215030404040E1F700C0BC
S11310E00000813321F482E20E94B40BFDC28233FA
S11310F021F482E30E94B40BF7C28F3F09F4BFCFFF
S1131100803309F4F1C20E942504C6010E9416042A
S11311108FEF94E3ACE081509040A040E1F700C031
S11311200000C053C33008F0AACF00E010E09FCE07
S11311300FEE11E00F2EF1EDAF2EF1E0BF2EF02DEA
S11311400F2EFEEC8F2EF1E09F2EF02D0F2EF5EDDD
S1131150EF2EF1E0FF2EF02D0E942504C8010E941D
S1131160160483E10E94B40B2FEF30E742E02150D4
S113117030404040E1F700C000008FEF0E94C10BF7
S1131180813021F4C4010E94160403C0C5010E94E9
S1131190160482E061E00E942F04C7010E94160435
S11311A00E943F03C82F8F3FD9F38FEF90E7A2E04F
S11311B081509040A040E1F700C00000C13321F409
S11311C083E20E94B40B93C2C23321F483E30E94EE
S11311D0B40B8DC2CF3F09F4BFCFC03309F487C22B
S11311E00E942504C6010E9416042FEF34E34CE04C
S11311F0215030404040E1F700C00000C053C330EC
S113120008F0AACF00E010E032CE0E942504C2010B
S11312100E94160482E061E00E942F04C1010E9432
S113122016040E943F03C82F8F3FD9F38FEF90E736
S1131230A2E081509040A040E1F700C00000C1331B
S113124009F458C2C23309F458C2C33309F458C26A
S1131250C43309F458C2CF3FC1F20E942504C60129
S11312600E9416042FEF34E34CE0215030404040FC
S1131270E1F700C00000C153C43038F6F8CD0CE1EA
S113128012E00F2EF1EDAF2EF1E0BF2EF02D0F2E58
S1131290FEEC8F2EF1E09F2EF02D0F2EF5EDEF2EAC
S11312A0F1E0FF2EF02D0E942504C8010E941604CF
S11312B084E10E94B40B8FEF90E7A2E0815090404C
S11312C0A040E1F700C000008FEF0E94C10B813005
S11312D021F4C4010E94160403C0C5010E9416042F
S11312E082E061E00E942F04C7010E9416040E945C
S11312F03F03C82F8F3FD9F32FEF30E742E021504F
S113130030404040E1F700C00000813321F484E222
S11313100E94B40B1DC0823321F484E30E94B40BF9
S113132017C08F3F09F4BFCF803391F00E9425048A
S1131330C6010E9416048FEF94E3ACE08150904004
S1131340A040E1F700C00000C053C33008F0ABCFA9
S1131350D13009F08ACD00E010E089CD05E212E039
S11313600F2EF1EDAF2EF1E0BF2EF02D0F2EFEEC7F
S11313708F2EF1E09F2EF02D0F2EF5EDEF2EF1E0E4
S1131380FF2EF02D0E942504C8010E94160485E159
S11313900E94B40B2FEF30E742E021503040404030
S11313A0E1F700C000008FEF0E94C10B813021F4EF
S11313B0C4010E94160403C0C5010E94160482E001
S11313C061E00E942F04C7010E9416040E943F039B
S11313D0C82F8F3FD9F38FEF90E7A2E08150904060
S11313E0A040E1F700C00000C13321F485E20E946F
S11313F0B40B8CC1C23321F485E30E94B40B86C1C3
S1131400CF3F09F4BFCFC03309F480C10E94250443
S1131410C6010E9416042FEF34E34CE02150304003
S11314204040E1F700C00000C053C33008F0AACF29
S113143008E210E01CCD0E9425048BE292E00E9499
S1131440160482E061E00E942F048EE392E00E9481
S113145016040E943F03C82F8F3FD9F38FEF90E704
S1131460A2E081509040A040E1F700C00000C133E9
S113147009F44FC1C23309F44FC1C03309F44FC159
S1131480CF3FC9F20E942504C6010E9416042FEF23
S113149034E34CE0215030404040E1F700C000000C
S11314A0C053C33040F6E3CC0E942504C3010E941C
S11314B016048FED0E940A0483E40E940A0481E06A
S11314C06BE00E942F048FEF91EEA4E081509040D6
S11314D0A040E1F700C000000E943F038F3FE1F30A
S11314E02FE73AE146E0215030404040E1F700C0A8
S11314F00000C82FC053CA3078F00E942504C601EA
S11315000E9416048FEF94E3ACE081509040A04019
S1131510E1F700C00000C8CF0E940A040E943F0304
S11315208F3FE1F32FE73AE146E02150304040405D
S1131530E1F700C00000182F10531A3078F00E9411
S11315402504C6010E9416048FEF94E3ACE0815099
S11315509040A040E1F700C00000A6CF0E940A041A
S1131560CC0F8C2F880F880FC80FC10F80E40E9406
S1131570B40B2FEF31EE44E0215030404040E1F70E
S113158000C000008C2F0E94B40B0E9425048DE53E
S113159092E00E9416048FEF94E3ACE081509040F7
S11315A0A040E1F700C00000CC2309F47DCF0BE29A
S11315B010E05DCC0EE612E00F2EF1EDAF2EF1E05F
S11315C0BF2EF02D0F2EFEEC8F2EF1E09F2EF02D6E
S11315D00F2EF5EDEF2EF1E0FF2EF02D0E942504E5
S11315E0C8010E94160486E10E94B40B2FEF30E775
S11315F042E0215030404040E1F700C000008FEF4E
S11316000E94C10B813021F4C4010E94160403C05E
S1131610C5010E94160482E061E00E942F04C70104
S11316200E9416040E943F03C82F8F3FD9F38FEF07
S113163090E7A2E081509040A040E1F700C0000094
S1131640C13321F486E20E94B40B6CC0C23321F48E
S113165086E30E94B40B66C0CF3F09F4BFCFC0330A
S113166009F460C00E942504C6010E9416042FEFED
S113167034E34CE0215030404040E1F700C000002A
S1131680C053C33008F0AACF0BE210E0F0CB00E067
S113169010E00F2EF8EF4F2EF1E05F2EF02D0F2EFD
S11316A0FBE02F2EF2E03F2EF02D0F2EF9EBCF2E84
S11316B0F1E0DF2EF02D0F2EFFE46F2EF2E07F2EEF
S11316C0F02DD5CB01E010E0D2CB02E010E0CFCB7F
S11316D003E010E0CCCB09E210E0C9CB08E210E053
S11316E0C6CB00E010E0C3CB00E010E0C0CB00E0CC
S11316F010E0BDCB09E210E0BACB0AE210E0B7CBB0
S11317000BE210E0B4CB00E010E0B1CB08E210E053
S1131710AECB0FEA11E0ABCB00EB11E0A8CB00E0BD
S113172010E0A5CB0BE210E0A2CB82E464E041E040
S11317300E94490082E465E041E00E94490082E49D
S113174067E041E00E9449006C9A689A6E9A82E4CC
S113175064E041E00E94E00008956E9A82E466E04D
S113176041E00E9449000895CF93C82F82E464E0C9
S113177040E00E94E000CFB9779BFECF8FB1CF91BC
S113178008958FB9779BFECF8FB10895CF93DF93E0
S1131790EC018881882379F021960E94B40B8FEFA5
S11317A092E5A7E081509040A040E1F700C000001E
S11317B08991882391F7DF91CF91089597FB092EA2
S11317C007260AD077FD04D00CD006D000201AF4E6
S11317D0709561957F4F0895F6F7909581959F4F89
S11317E00895AA1BBB1B51E107C0AA1FBB1FA61764
S11317F0B70710F0A61BB70B881F991F5A95A9F7B6
S111180080959095BC01CD010895F894FFCF1A
S113180E3738392F3435362A3132332D43303D2B88
S113181E57656C636F6D6520546F20486F6D65005E
S113182E486F6D652053797374656D004C6F6769ED
S113183E6E20666F720066697273742074696D65CA
S113184E005365742041646D696E2050617373009A
S113185E41646D696E20506173733A005061737305
S113186E20536176656400536574204775657374FF
S113187E20506173730047756573742050617373E0
S113188E3A004C6F67696E20626C6F636B6564001F
S113189E776169742000207365636F6E64730053FF
S11318AE656C656374204D6F64653A00303A41642B
S11318BE6D696E20313A47756573740057726F6E99
S11318CE6720696E7075742E0041646D696E206DAB
S11318DE6F646500436865636B20506173733A00EF
S11318EE747275652070617373776F7264004164EE
S11318FE6D696E204D6F64650077726F6E67207030
S113190E617373776F7264007472696573206C65AA
S113191E66743A004775657374206D6F646500478D
S113192E75657374204D6F646500313A526F6F6D37
S113193E3120323A526F6F6D3200333A526F6F6DFF
S113194E3320343A4D6F726500333A526F6F6D33F4
S113195E20343A526F6F6D340057726F6E67206980
S113196E6E70757400526F6F6D3120533A004F4E86
S113197E004F464600312D4F6E20322D4F666620A5
S113198E302D52455400526F6F6D3220533A00522F
S113199E6F6F6D3320533A00313A526F6F6D3420AE
S11319AE202020323A545620202000333A416972C6
S11319BE436F6E64202E343A52455400526F6F6D4D
S11319CE3420533A00545620533A00313A53657436
S11319DE2074656D70657261747572652000323A9B
S11319EE436F6E74726F6C2020303A52455400531C
S11319FE65742074656D702E3A5F5F200054656DBA
S1131A0E70657261747572652053656E74004169F8
S1131A1E7220436F6E642E20533A00FF00000000C4
S9030000FC
