S012000043616C63756C61746F722E7372656308
S11300000C942A000C9447000C9447000C9447006D
S11300100C9447000C9447000C9447000C94470040
S11300200C9447000C9447000C9447000C94470030
S11300300C9447000C9447000C9447000C94470020
S11300400C9447000C9447000C9447000C94470010
S11300500C94470011241FBECFE5D8E0DEBFCDBF0E
S113006010E0A0E6B0E0E6EDFEE002C005900D92DF
S1130070A637B107D9F710E0A6E7B0E001C01D929A
S1130080A637B107E1F70E9449000C9469070C9464
S11300900000CF93DF9300D000D000D0CDB7DEB7FF
S11300A00F2EF0E68F2EF0E09F2EF02D0F2EF6E0AF
S11300B0CF2EF02D0E94CC060E940406DE0111967C
S11300C0F4018C2D01900D928150E1F7DD240F2E67
S11300D0FAE06F2E7724F02D0F2EF4E62F2E332422
S11300E0F02D0F2EF0E34F2E5524F02D0E944106E3
S11300F0E1E0F0E0EC0FFD1FED0DF11D80838F3F7B
S1130100A9F38F3251F08A3241F08D3231F08B32C3
S113011021F08D3311F0833419F40E942707CACFDC
S11301200E940C078D2D8F5F2FEF31EE44E021509C
S113013030404040E1F700C0000001E010E00C0F47
S11301401D1F080F111D0E944106D8018C938F3F7B
S1130150D1F38F3251F08A3241F08D3231F08B324B
S113016021F08D3311F0833419F40E942707A2CFB4
S11301700E940C078D2D8E5F2FEF31EE44E021504D
S113018030404040E1F700C0000001E010E00C0FF7
S11301901D1F080F111D0E944106D8018C938F3F2B
S11301A0D1F38D33B1F08334A1F0803391F08133F6
S11301B081F0823371F0833361F0843351F08533FD
S11301C041F0863331F0873321F0883311F08933DD
S11301D019F40E9427076ECF0E940C078D2D8D5FA6
S11301E02FEF31EE44E0215030404040E1F700C0B1
S11301F0000001E010E00C0F1D1F080F111D0E94EC
S11302004106D8018C938F3FD1F38F3251F08A325B
S113021041F08D3231F08B3221F08D3311F0833483
S113022019F40E94270746CF0E940C078D2D8C5F7E
S11302302FEF31EE44E0215030404040E1F700C060
S1130240000001E010E00C0F1D1F080F111D0E949B
S11302504106D8018C938F3FD1F38F3251F08A320B
S113026041F08D3231F08B3221F08D3311F0833433
S113027019F40E9427071ECF0E940C07B5E0DB0E7D
S11302802FEF31EE44E0215030404040E1F700C010
S11302900000ED2CFF2401E010E00C0F1D1F0E0DDB
S11302A01F1D0E944106D8018C938F3FD1F38D33DB
S11302B009F0F1C10E940C07EEEFFFEFEC0FFD1FF8
S11302C0EE0DFF1D80818B3269F08C3220F48A326E
S11302D009F0E4C1F2C08D3209F477C08F3209F01D
S11302E0DDC164C1ECEFFFEFEC0FFD1FEE0DFF1D50
S11302F0808190E0880F991F9C01220F331F220FE9
S1130300331F820F931FEDEFFFEFEC0FFD1FEE0D78
S1130310FF1D2081AC01420F511DEFEFFFEFEC0FE9
S1130320FD1FEE0DFF1D808190E0880F991F9C0139
S1130330220F331F220F331F820F931F840F951F29
S1130340FE01EE0DFF1D2081820F911D8C010052D4
S11303501440C80184569040B3E084389B07C8F425
S1130360C801B1010E944207862F805D0E940C07DC
S1130370C801B3010E944207082FCB01B3010E94B8
S11303804207805D0E940C07802F805D0E940C074D
S113039085C1C8010A978A35910570F4C801B30173
S11303A00E944207082F862F805D0E940C07802F31
S11303B0805D0E940C0772C10A30110508F06EC1FD
S11303C0802F805D0E940C0769C1ECEFFFEFEC0FFA
S11303D0FD1FEE0DFF1D808190E0880F991F9C0189
S11303E0220F331F220F331F820F931FEDEFFFEFF6
S11303F0EC0FFD1FEE0DFF1D2081BC01620F711D6E
S1130400FE01EE0DFF1D8081A201481B5109EFEF93
S1130410FFEFEC0FFD1FEE0DFF1D808190E0880FB4
S1130420991F9C01220F331F220F331F820F931F2A
S1130430FA01E81BF90BCF01860F971F8C010053BB
S11304401040C80184569040F3E084389F07C8F4F4
S1130450C801B1010E944207862F805D0E940C07EB
S1130460C801B3010E944207082FCB01B3010E94C7
S11304704207805D0E940C07802F805D0E940C075C
S11304800DC1C8010A978A35910570F4C801B301FA
S11304900E944207082F862F805D0E940C07802F40
S11304A0805D0E940C07FAC00A30110508F0F6C0FE
S11304B0802F805D0E940C07F1C0ECEFFFEFEC0F82
S11304C0FD1FEE0DFF1D808190E0880F991F9C0198
S11304D0220F331F220F331F820F931FEDEFFFEF05
S11304E0EC0FFD1FEE0DFF1D2081820F911DAC014D
S11304F040515240EFEFFFEFEC0FFD1FEE0DFF1DDB
S1130500808190E0880F991F9C01220F331F220FD6
S1130510331F820F931FFE01EE0DFF1D2081820FFA
S1130520911D80519240489F8001499F100D589F12
S1130530100D1124C8018456904023E0843892079A
S1130540C8F4C801B1010E944207862F805D0E9451
S11305500C07C801B3010E944207082FCB01B30165
S11305600E944207805D0E940C07802F805D0E94DC
S11305700C0794C0C8010A978A35910570F4C80124
S1130580B3010E944207082F862F805D0E940C074A
S1130590802F805D0E940C0781C00A30110508F08D
S11305A07DC0802F805D0E940C0778C0ECEFFFEFC8
S11305B0EC0FFD1FEE0DFF1D808190E0880F991F49
S11305C09C01220F331F220F331F820F931FEDEF65
S11305D0FFEFEC0FFD1FEE0DFF1D2081820F911D1B
S11305E09C0120513240EFEFFFEFEC0FFD1FEE0DA9
S11305F0FF1D608170E0660F771FCB01880F991F84
S1130600880F991F680F791FFE01EE0DFF1D808171
S1130610680F711D60517240C9010E9456078B0119
S1130620CB018456904033E084389307C8F4CB015F
S1130630B1010E944207862F805D0E940C07C80109
S1130640B3010E944207082FCB01B3010E94420765
S1130650805D0E940C07802F805D0E940C071EC0E5
S1130660CB010A978A35910570F4CB01B3010E943E
S11306704207082F862F805D0E940C07802F805D23
S11306800E940C070BC06A30710540F4862F805D10
S11306900E940C0703C00E9427070CCD8FEF91EE38
S11306A0A4E081509040A040E1F700C000001ECDBE
S11306B0823451F1833420F4813409F07BC007C0C3
S11306C0833409F43EC0843409F074C057C0413007
S11306D069F42AB381E090E0AC0102C0440F551FD5
S11306E06A95E2F7BA01622B6ABB08952AB381E0E6
S11306F090E0AC0102C0440F551F6A95E2F7BA01BD
S1130700609562236ABB0895413069F427B381E0A0
S113071090E0AC0102C0440F551F6A95E2F7BA019C
S1130720622B67BB089527B381E090E0AC0102C05F
S1130730440F551F6A95E2F7BA016095622367BBBF
S11307400895413069F424B381E090E0AC0102C023
S1130750440F551F6A95E2F7BA01622B64BB0895F2
S113076024B381E090E0AC0102C0440F551F6A95A8
S1130770E2F7BA016095622364BB0895413069F4DD
S113078021B381E090E0AC0102C0440F551F6A958B
S1130790E2F7BA01622B61BB089521B381E090E0D6
S11307A0AC0102C0440F551F6A95E2F7BA01609587
S11307B0622361BB0895823461F0833418F4813478
S11307C069F405C0833439F0843441F406C06ABB4B
S11307D0089567BB089564BB089561BB089582348E
S11307E051F1833420F4813409F07BC007C0833491
S11307F009F43EC0843409F074C057C0413069F430
S11308002BB381E090E0AC0102C0440F551F6A9500
S1130810E2F7BA01622B6BBB08952BB381E090E041
S1130820AC0102C0440F551F6A95E2F7BA01609506
S113083062236BBB0895413069F428B381E090E0F2
S1130840AC0102C0440F551F6A95E2F7BA01622B4E
S113085068BB089528B381E090E0AC0102C0440F66
S1130860551F6A95E2F7BA016095622368BB089543
S1130870413069F425B381E090E0AC0102C0440F3B
S1130880551F6A95E2F7BA01622B65BB089525B33B
S113089081E090E0AC0102C0440F551F6A95E2F775
S11308A0BA016095622365BB0895413069F422B3AF
S11308B081E090E0AC0102C0440F551F6A95E2F755
S11308C0BA01622B62BB089522B381E090E0AC01CF
S11308D002C0440F551F6A95E2F7BA01609562237E
S11308E062BB0895823461F0833418F4813469F46E
S11308F005C0833439F0843441F406C06BBB0895D9
S113090068BB089565BB089562BB08958234F1F015
S1130910833420F4813409F04FC006C0833441F19C
S1130920843409F049C036C029B381E090E0062E32
S113093002C0880F991F0A94E2F730E082239323C0
S113094002C0959587956A95E2F7089526B381E0EC
S113095090E0062E02C0880F991F0A94E2F730E057
S11309608223932302C0959587956A95E2F70895AB
S113097023B381E090E0062E02C0880F991F0A94E9
S1130980E2F730E08223932302C0959587956A9518
S1130990E2F7089520B381E090E0062E02C0880FAC
S11309A0991F0A94E2F730E08223932302C09595BD
S11309B087956A95E2F7089580E00895823461F09E
S11309C0833418F4813471F405C0833439F08434E9
S11309D049F406C089B3089586B3089583B308958E
S11309E080B3089580E008958234B9F0833418F414
S11309F08134C9F505C08334E9F08434A1F527C0F6
S1130A002BB381E090E0AC0102C0440F551F6A95FE
S1130A10E2F7BA0162276BBB089528B381E090E046
S1130A20AC0102C0440F551F6A95E2F7BA01622770
S1130A3068BB089525B381E090E0AC0102C0440F87
S1130A40551F6A95E2F7BA01622765BB089522B380
S1130A5081E090E0AC0102C0440F551F6A95E2F7B3
S1130A60BA01622762BB0895823451F1833420F4C1
S1130A70813409F07BC007C0833409F43EC0843458
S1130A8009F074C057C0413069F42BB381E090E0A1
S1130A90AC0102C0440F551F6A95E2F7BA01622BFC
S1130AA06BBB08952BB381E090E0AC0102C0440F0E
S1130AB0551F6A95E2F7BA01609562236BBB0895EE
S1130AC0413069F428B381E090E0AC0102C0440FE6
S1130AD0551F6A95E2F7BA01622B68BB089528B3E3
S1130AE081E090E0AC0102C0440F551F6A95E2F723
S1130AF0BA016095622368BB0895413069F425B357
S1130B0081E090E0AC0102C0440F551F6A95E2F702
S1130B10BA01622B65BB089525B381E090E0AC0176
S1130B2002C0440F551F6A95E2F7BA01609562232B
S1130B3065BB0895413069F422B381E090E0AC01D3
S1130B4002C0440F551F6A95E2F7BA01622B62BBDB
S1130B50089522B381E090E0AC0102C0440F551F18
S1130B606A95E2F7BA016095622362BB08956F70DB
S1130B70823481F0833418F48134F1F405C0833471
S1130B8079F08434C9F412C08BB3807F8BBB8BB3F0
S1130B90862B8BBB88B3807F88BB88B3862B88BBAE
S1130BA085B3807F85BB85B3862B85BB82B3807F6D
S1130BB082BB82B3682B62BB08956295607F8234E6
S1130BC081F0833418F48134F1F405C0833479F06E
S1130BD08434C9F412C08BB38F708BBB8BB3862B58
S1130BE08BBB88B38F7088BB88B3862B88BB85B3D7
S1130BF08F7085BB85B3862B85BB82B38F7082BB18
S1130C0082B3682B62BB089584E460E041E00E94F3
S1130C10580384E461E041E00E94580384E462E004
S1130C2041E00E94580384E463E041E00E945803D9
S1130C3084E464E040E00E94580384E465E040E01A
S1130C400E94580384E466E040E00E94580384E470
S1130C5067E040E00E94580384E464E041E00E94BD
S1130C60340584E465E041E00E94340584E466E0F0
S1130C7041E00E94340584E467E041E00E943405C9
S1130C800895FF920F931F93CF93DF93CDB7DEB7F1
S1130C9060970FB6F894DEBF0FBECDBFDE0111968C
S1130CA0E6E6F0E080E101900D928150E1F7FF2447
S1130CB084E460E041E00E94EF0384E461E041E009
S1130CC00E94EF0384E462E041E00E94EF0384E4C5
S1130CD063E041E00E94EF0384E46F2D40E00E9452
S1130CE0EF0310E0012F0C5F84E4602F0E94860460
S1130CF08823C1F48FE39CE90197F1F700C0000059
S1130D0084E4602F0E9486048823D1F3EF2DF0E061
S1130D10EE0FFF1FEE0FFF1FE10FF11DEC0FFD1F84
S1130D20818104C01F5F1430E9F60CC060960FB6D1
S1130D30F894DEBF0FBECDBFDF91CF911F910F910D
S1130D40FF900895F39494E0F91609F0B1CF8FEF72
S1130D50EDCF81E460E041E00E94EF038FE99FE082
S1130D600197F1F700C0000081E460E040E00E94D8
S1130D70EF038FE99FE00197F1F700C000000895A9
S1130D80682F83E40E94720481E462E040E00E94E0
S1130D90EF030E94A90608958FEF91EEA4E081501D
S1130DA09040A040E1F700C0000083E461E00E94AD
S1130DB0DB0381E460E041E00E94580381E461E0E8
S1130DC041E00E94580381E462E041E00E9458033C
S1130DD081E461E040E00E94EF0388E30E94C006E2
S1130DE0AFECB7E01197F1F700C000008EE00E946D
S1130DF0C0068FEC97E00197F1F700C0000081E096
S1130E000E94C006AFE1BEE41197F1F700C00000F4
S1130E1086E00E94C0060895682F83E40E9472044D
S1130E2081E462E041E00E94EF030E94A906089574
S1130E30CF93DF93EC018881882331F021960E94BF
S1130E400C0789918823D9F7DF91CF91089581E028
S1130E500E94C0068FE19EE40197F1F700C00000F4
S1130E600895683270F4813019F0823051F405C06D
S1130E70862F80580E94C0060895862F80540E94B1
S1130E80C0060895AA1BBB1B51E107C0AA1FBB1FC4
S1130E90A617B70710F0A61BB70B881F991F5A9502
S1130EA0A9F780959095BC01CD01089597FB092E73
S1130EB007260AD077FD04D0E5DF06D000201AF417
S1130EC0709561957F4F0895F6F7909581959F4FA2
S1090ED00895F894FFCF21
S1130ED6FFFFFFFFFFFF3738392F3435362A31320B
S1090EE6332D43303D2BC7
S9030000FC
