S0110000536C617665436F64652E737265639D
S11300000C945A000C9477000C9477000C947700AD
S11300100C9477000C9477000C9477000C94770080
S11300200C9477000C9477000C945B040C94770088
S11300300C9477000C9477000C9477000C94770060
S11300400C9477000C9477000C9477000C94770050
S11300500C9477009A03B803D603F4031204300413
S1130060890389038903890389038903890389032C
S113007089038903AE03CC03EA0308042604440479
S1130080890389038903890389038903890389030C
S113009089038903B303D103EF030D042B044B0439
S11300A089038903890389038903890389038903EC
S11300B08903520411241FBECFE5D8E0DEBFCDBFB3
S11300C010E0A0E6B0E0EAEFFDE002C005900D927A
S11300D0A236B107D9F710E0A2E6B0E001C01D9244
S11300E0A636B107E1F70E9468030C94FB060C9452
S11300F000003E9A3F9A379A329A319A089597B1FE
S1130100892B87B9369A349BFECF349A84B190E018
S113011045B1342F20E0822B932B0895823451F182
S1130120833420F4813409F07BC007C0833409F49C
S11301303EC0843409F074C057C0413069F42AB316
S113014081E090E0AC0102C0440F551F6A95E2F7CC
S1130150BA01622B6ABB08952AB381E090E0AC0136
S113016002C0440F551F6A95E2F7BA0160956223F5
S11301706ABB0895413069F427B381E090E0AC0193
S113018002C0440F551F6A95E2F7BA01622B67BBA0
S1130190089527B381E090E0AC0102C0440F551FDD
S11301A06A95E2F7BA016095622367BB089541300E
S11301B069F424B381E090E0AC0102C0440F551F00
S11301C06A95E2F7BA01622B64BB089524B381E017
S11301D090E0AC0102C0440F551F6A95E2F7BA01E2
S11301E06095622364BB0895413069F421B381E0D2
S11301F090E0AC0102C0440F551F6A95E2F7BA01C2
S1130200622B61BB089521B381E090E0AC0102C090
S1130210440F551F6A95E2F7BA016095622361BBEA
S11302200895823461F0833418F4813469F405C08C
S1130230833439F0843441F406C06ABB089567BB43
S1130240089564BB089561BB0895823451F18334E9
S113025020F4813409F07BC007C0833409F43EC024
S1130260843409F074C057C0413069F42BB381E081
S113027090E0AC0102C0440F551F6A95E2F7BA0141
S1130280622B6BBB08952BB381E090E0AC0102C0FC
S1130290440F551F6A95E2F7BA01609562236BBB60
S11302A00895413069F428B381E090E0AC0102C0C4
S11302B0440F551F6A95E2F7BA01622B68BB089593
S11302C028B381E090E0AC0102C0440F551F6A9549
S11302D0E2F7BA016095622368BB0895413069F47E
S11302E025B381E090E0AC0102C0440F551F6A952C
S11302F0E2F7BA01622B65BB089525B381E090E073
S1130300AC0102C0440F551F6A95E2F7BA0160952B
S1130310622365BB0895413069F422B381E090E023
S1130320AC0102C0440F551F6A95E2F7BA01622B73
S113033062BB089522B381E090E0AC0102C0440F97
S1130340551F6A95E2F7BA016095622362BB08956E
S1130350823461F0833418F4813469F405C0833441
S113036039F0843441F406C06BBB089568BB08952A
S113037065BB089562BB08958234F1F0833420F4A0
S1130380813409F04FC006C0833441F1843409F04C
S113039049C036C029B381E090E0062E02C0880F20
S11303A0991F0A94E2F730E08223932302C09595C3
S11303B087956A95E2F7089526B381E090E0062ECA
S11303C002C0880F991F0A94E2F730E08223932336
S11303D002C0959587956A95E2F7089523B381E065
S11303E090E0062E02C0880F991F0A94E2F730E0CD
S11303F08223932302C0959587956A95E2F7089521
S113040020B381E090E0062E02C0880F991F0A9461
S1130410E2F730E08223932302C0959587956A958D
S1130420E2F7089580E00895823461F0833418F48B
S1130430813471F405C0833439F0843449F406C03E
S113044089B3089586B3089583B3089580B3089556
S113045080E008958234B9F0833418F48134C9F506
S113046005C08334E9F08434A1F527C02BB381E0BF
S113047090E0AC0102C0440F551F6A95E2F7BA013F
S113048062276BBB089528B381E090E0AC0102C001
S1130490440F551F6A95E2F7BA01622768BB0895B5
S11304A025B381E090E0AC0102C0440F551F6A956A
S11304B0E2F7BA01622765BB089522B381E090E0B8
S11304C0AC0102C0440F551F6A95E2F7BA016227D6
S11304D062BB0895823471F0833418F48134A9F432
S11304E005C0833459F0843481F40CC08BB38095F7
S11304F08BBB089588B3809588BB089585B3809598
S113050085BB089582B3809582BB0895823451F1EE
S1130510833420F4813409F07BC007C0833409F4A8
S11305203EC0843409F074C057C0413069F42BB321
S113053081E090E0AC0102C0440F551F6A95E2F7D8
S1130540BA01622B6BBB08952BB381E090E0AC0140
S113055002C0440F551F6A95E2F7BA016095622301
S11305606BBB0895413069F428B381E090E0AC019D
S113057002C0440F551F6A95E2F7BA01622B68BBAB
S1130580089528B381E090E0AC0102C0440F551FE8
S11305906A95E2F7BA016095622368BB0895413019
S11305A069F425B381E090E0AC0102C0440F551F0B
S11305B06A95E2F7BA01622B65BB089525B381E021
S11305C090E0AC0102C0440F551F6A95E2F7BA01EE
S11305D06095622365BB0895413069F422B381E0DC
S11305E090E0AC0102C0440F551F6A95E2F7BA01CE
S11305F0622B62BB089522B381E090E0AC0102C09B
S1130600440F551F6A95E2F7BA016095622362BBF5
S113061008956F70823481F0833418F48134F1F4D6
S113062005C0833479F08434C9F412C08BB3807F5D
S11306308BBB8BB3862B8BBB88B3807F88BB88B383
S1130640862B88BB85B3807F85BB85B3862B85BB12
S113065082B3807F82BB82B3682B62BB08956295AC
S1130660607F823481F0833418F48134F1F405C05E
S1130670833479F08434C9F412C08BB38F708BBB8C
S11306808BB3862B8BBB88B38F7088BB88B3862BC8
S113069088BB85B38F7085BB85B3862B85BB82B33E
S11306A08F7082BB82B3682B62BB089541E00E94C5
S11306B08E00089541E00E942501089540E00E94C3
S11306C0250108950E942A0208950E94BC010895FC
S11306D00E94FC040E94790084E462E00E945603B4
S11306E084E463E00E94560384E464E00E945603B9
S11306F084E465E00E94560384E466E00E945603A5
S113070084E467E00E9456030E942D05C1E0D1E015
S113071010E08FEF0E94100590E04197803391051F
S1130720C0F7865D9F4FFC01EE0FFF1F0590F4910B
S1130730E02D099484E464E00E946503813039F07B
S113074084E464E00E946503882319F003C0CD2F7C
S113075001C0C12F8C2F0E940305DBCF84E464E029
S11307600E945A03D6CF84E464E00E945E03D1CF92
S113077084E465E00E946503813039F084E465E037
S11307800E946503882319F003C0CD2F01C0C12F37
S11307908C2F0E940305BDCF84E465E00E945A03B8
S11307A0B8CF84E465E00E945E03B3CF84E466E0DE
S11307B00E946503813039F084E466E00E94650399
S11307C0882319F003C0CD2F01C0C12F8C2F0E94A4
S11307D003059FCF84E466E00E945A039ACF84E421
S11307E066E00E945E0395CF84E467E00E9465039F
S11307F0813039F084E467E00E946503882319F0AE
S113080003C0CD2F01C0C12F8C2F0E94030581CFBF
S113081084E467E00E945A037CCF84E467E00E948A
S11308205E0377CF84E463E00E946503813039F08E
S113083084E463E00E946503882319F003C0CD2F8C
S113084001C0C12F8C2F0E94030563CF84E463E0B1
S11308500E945A035ECF84E463E00E945E0359CF92
S113086084E462E00E946503813039F084E462E04C
S11308700E946503882319F003C0CD2F01C0C12F46
S11308808C2F0E94030545CF0E942D0584E462E06D
S11308900E945A033ECF0E94430584E462E00E9412
S11308A05E0337CF8FEF0E94100590E090936100B4
S11308B0809360002ECF1F920F920FB60F921124D7
S11308C02F933F934F935F936F937F938F939F9354
S11308D0AF93BF93EF93FF93809163008F5F8093F7
S11308E06300809163008A3008F45DC01092630055
S11308F080E00E947F00BC0180E090E00E940A0634
S113090020E030E040E85EE30E9498060E94DE05A5
S1130910DC01CB019093650080936400209160001A
S11309203091610080916400909165002F5F3F4F8A
S11309308217930740F084E462E00E945A0381E046
S11309408093620030C020916000309161008091FA
S1130950640090916500215030402817390738F021
S113096084E462E00E945E03109262001CC0209145
S113097060003091610080916400909165002817B7
S1130980390789F480916200813029F484E462E0BB
S11309900E945A0308C080916200882321F484E4F1
S11309A062E00E945E03FF91EF91BF91AF919F912E
S11309B08F917F916F915F914F913F912F910F9004
S11309C00FBE0F901F90189582E464E041E00E94EE
S11309D08E0082E465E041E00E948E0082E467E0DC
S11309E041E00E948E006C9A689A6E9A82E464E0F8
S11309F041E00E94250108956E9A82E466E041E098
S1130A000E948E000895CF93C82F82E464E040E0F2
S1130A100E942501CFB9779BFECF8FB1CF91089566
S1130A208FB9779BFECF8FB10895CF93DF93EC01FD
S1130A308881882379F021960E9403058FEF92E53F
S1130A40A7E081509040A040E1F700C000008991E8
S1130A50882391F7DF91CF9108958EE48CBF83B7FB
S1130A60886083BF83B78F7B83BF83B7816083BF75
S1130A7083B78D7F83BF83B7846083BF789489B73E
S1130A80826089BF089583B78E7F83BF83B78D7FCC
S1130A9083BF83B78B7F83BF089580E88CBF83B700
S1130AA0806483BF83B7886083BF789483B7806290
S1130AB083BF89B7816089BF83B7816083BF83B7F0
S1130AC08D7F83BF83B7846083BF089520E030E0C7
S1130AD048EC52E40E94760520E030E040E853E41C
S1130AE00E9498060E94DE056CBF08950CD0E6C0F3
S1130AF0DED040F0D5D030F021F45F3F19F0C7C00C
S1130B00511110C1CAC0EBD098F39923C9F35523EE
S1130B10B1F3951B550BBB27AA27621773078407EC
S1130B2038F09F5F5F4F220F331F441FAA1FA9F3A2
S1130B3033D00E2E3AF0E0E830D091505040E69594
S1130B40001CCAF729D0FE2F27D0660F771F881FF5
S1130B50BB1F261737074807AB07B0E809F0BB0BE4
S1130B60802DBF01FF2793585F4F2AF09E3F510508
S1130B7068F08DC0D7C05F3FECF3983EDCF38695F8
S1130B8077956795B795F7959F5FC9F7880F911D7E
S1130B909695879597F90895E1E0660F771F881F6A
S1130BA0BB1F621773078407BA0720F0621B730B1D
S1130BB0840BBA0BEE1F88F7E095089598D088F05F
S1130BC09F5790F0B92F9927B751A0F0D1F0660F35
S1130BD0771F881F991F1AF0BA95C9F712C0B13050
S1130BE081F09FD0B1E008959CC0672F782F8827AB
S1130BF0B85F39F0B93FCCF3869577956795B3958F
S1130C00D9F73EF490958095709561957F4F8F4FFD
S1130C109F4F0895E89409C097FB3EF49095809502
S1130C20709561957F4F8F4F9F4F9923A9F0F92FAE
S1130C3096E9BB279395F695879577956795B7952C
S1130C40F111F8CFFAF4BB0F11F460FF1BC06F5F12
S1130C507F4F8F4F9F4F16C0882311F096E911C024
S1130C60772321F09EE8872F762F05C0662371F045
S1130C7096E8862F70E060E02AF09A95660F771F59
S1130C80881FDAF7880F9695879597F9089597F94D
S1130C909F6780E870E060E008959FEF80EC08951E
S1130CA000240A9416161706180609060895002447
S1130CB00A9412161306140605060895092E0394C1
S1130CC0000C11F4882352F0BB0F40F4BF2B11F435
S1130CD060FF04C06F5F7F4F8F4F9F4F089557FD94
S1130CE09058440F551F59F05F3F71F04795880F96
S1130CF097FB991F61F09F3F79F08795089512162D
S1130D0013061406551FF2CF4695F1DF08C01616D8
S1130D1017061806991FF1CF869571056105089489
S1130D200895E894BB2766277727CB0197F90895A0
S1130D300BD0C4CFB5DF28F0BADF18F0952309F043
S1130D40A6CFABCF1124EECFCADFA0F3959FD1F38A
S1130D50950F50E0551F629FF001729FBB27F00D65
S1130D60B11D639FAA27F00DB11DAA1F649F6627BA
S1130D70B00DA11D661F829F2227B00DA11D621F09
S1130D80739FB00DA11D621F839FA00D611D221FC3
S1130D90749F3327A00D611D231F849F600D211DA7
S1130DA0822F762F6A2F11249F5750408AF0E1F04A
S1130DB088234AF0EE0FFF1FBB1F661F771F881F93
S1130DC091505040A9F79E3F510570F060CFAACFD3
S1130DD05F3FECF3983EDCF3869577956795B7957E
S1130DE0F795E7959F5FC1F7FE2B880F911D9695A8
S10D0DF0879597F90895F894FFCF52
S1050DFA1800DB
S9030000FC
