:100000000C942A000C9447000C9447000C94470071
:100010000C9447000C9447000C9447000C94470044
:100020000C9447000C9447000C9447000C94470034
:100030000C9447000C9447000C9447000C94470024
:100040000C9447000C9447000C9447000C94470014
:100050000C94470011241FBECFE5D8E0DEBFCDBF12
:1000600010E0A0E6B0E0E0E4FDE002C005900D92F3
:10007000AE3CB107D9F710E0AEECB0E001C01D9284
:10008000AE3CB107E1F70E9450040C949E060C941C
:100090000000823451F1833420F4813409F07BC0B4
:1000A00007C0833409F43EC0843409F074C057C0DB
:1000B000413069F42AB381E090E0AC0102C0440F02
:1000C000551F6A95E2F7BA01622B6ABB08952AB3FD
:1000D00081E090E0AC0102C0440F551F6A95E2F741
:1000E000BA01609562236ABB0895413069F427B371
:1000F00081E090E0AC0102C0440F551F6A95E2F721
:10010000BA01622B67BB089527B381E090E0AC0190
:1001100002C0440F551F6A95E2F7BA016095622349
:1001200067BB0895413069F424B381E090E0AC01ED
:1001300002C0440F551F6A95E2F7BA01622B64BBF7
:10014000089524B381E090E0AC0102C0440F551F34
:100150006A95E2F7BA016095622364BB0895413065
:1001600069F421B381E090E0AC0102C0440F551F57
:100170006A95E2F7BA01622B61BB089521B381E071
:1001800090E0AC0102C0440F551F6A95E2F7BA0136
:100190006095622361BB0895823461F0833418F462
:1001A000813469F405C0833439F0843441F406C0E5
:1001B0006ABB089567BB089564BB089561BB089549
:1001C000823451F1833420F4813409F07BC007C0BC
:1001D000833409F43EC0843409F074C057C0413000
:1001E00069F42BB381E090E0AC0102C0440F551FCD
:1001F0006A95E2F7BA01622B6BBB08952BB381E0DD
:1002000090E0AC0102C0440F551F6A95E2F7BA01B5
:10021000609562236BBB0895413069F428B381E097
:1002200090E0AC0102C0440F551F6A95E2F7BA0195
:10023000622B68BB089528B381E090E0AC0102C056
:10024000440F551F6A95E2F7BA016095622368BBB7
:100250000895413069F425B381E090E0AC0102C01B
:10026000440F551F6A95E2F7BA01622B65BB0895EA
:1002700025B381E090E0AC0102C0440F551F6A95A0
:10028000E2F7BA016095622365BB0895413069F4D5
:1002900022B381E090E0AC0102C0440F551F6A9583
:1002A000E2F7BA01622B62BB089522B381E090E0CD
:1002B000AC0102C0440F551F6A95E2F7BA01609580
:1002C000622362BB0895823461F0833418F4813470
:1002D00069F405C0833439F0843441F406C06BBB43
:1002E000089568BB089565BB089562BB0895823484
:1002F000F1F0833420F4813409F04FC006C0833418
:1003000041F1843409F049C036C029B381E090E05E
:10031000062E02C0880F991F0A94E2F730E082236C
:10032000932302C0959587956A95E2F7089526B3C1
:1003300081E090E0062E02C0880F991F0A94E2F730
:1003400030E08223932302C0959587956A95E2F762
:10035000089523B381E090E0062E02C0880F991F14
:100360000A94E2F730E08223932302C095958795A3
:100370006A95E2F7089520B381E090E0062E02C06E
:10038000880F991F0A94E2F730E08223932302C07A
:10039000959587956A95E2F7089580E008958234EF
:1003A00061F0833418F4813471F405C0833439F07A
:1003B000843449F406C089B3089586B3089583B39D
:1003C000089580B3089580E008958234B9F08334AD
:1003D00018F48134C9F505C08334E9F08434A1F5FB
:1003E00027C02BB381E090E0AC0102C0440F551F41
:1003F0006A95E2F7BA0162276BBB089528B381E0E2
:1004000090E0AC0102C0440F551F6A95E2F7BA01B3
:10041000622768BB089525B381E090E0AC0102C07B
:10042000440F551F6A95E2F7BA01622765BB08952C
:1004300022B381E090E0AC0102C0440F551F6A95E1
:10044000E2F7BA01622762BB0895823451F1833426
:1004500020F4813409F07BC007C0833409F43EC026
:10046000843409F074C057C0413069F42BB381E083
:1004700090E0AC0102C0440F551F6A95E2F7BA0143
:10048000622B6BBB08952BB381E090E0AC0102C0FE
:10049000440F551F6A95E2F7BA01609562236BBB62
:1004A0000895413069F428B381E090E0AC0102C0C6
:1004B000440F551F6A95E2F7BA01622B68BB089595
:1004C00028B381E090E0AC0102C0440F551F6A954B
:1004D000E2F7BA016095622368BB0895413069F480
:1004E00025B381E090E0AC0102C0440F551F6A952E
:1004F000E2F7BA01622B65BB089525B381E090E075
:10050000AC0102C0440F551F6A95E2F7BA0160952D
:10051000622365BB0895413069F422B381E090E025
:10052000AC0102C0440F551F6A95E2F7BA01622B75
:1005300062BB089522B381E090E0AC0102C0440F99
:10054000551F6A95E2F7BA016095622362BB089570
:100550006F70823481F0833418F48134F1F405C073
:10056000833479F08434C9F412C08BB3807F8BBBA1
:100570008BB3862B8BBB88B3807F88BB88B3862BDD
:1005800088BB85B3807F85BB85B3862B85BB82B353
:10059000807F82BB82B3682B62BB08956295607FC7
:1005A000823481F0833418F48134F1F405C083344B
:1005B00079F08434C9F412C08BB38F708BBB8BB3CA
:1005C000862B8BBB88B38F7088BB88B3862B88BB88
:1005D00085B38F7085BB85B3862B85BB82B38F7047
:1005E00082BB82B3682B62BB08958EBB9FBB6DBB81
:1005F000E29AE19AE199FECF08958EBB9FBBE09A03
:100600008DB3089582E460E041E00E94490082E4F5
:1006100061E041E00E94490082E462E041E00E9422
:10062000490082E463E041E00E94490082E464E022
:1006300040E00E94490082E465E040E00E944900F9
:1006400082E466E040E00E94490082E467E040E026
:100650000E94490082E464E041E00E94250282E4B5
:1006600065E041E00E94250282E466E041E00E94EC
:10067000250282E467E041E00E9425020895FF928E
:100680000F931F93CF93DF93CDB7DEB760970FB66D
:10069000F894DEBF0FBECDBFDE011196E0E6F0E0BC
:1006A00080E101900D928150E1F7FF2482E460E047
:1006B00041E00E94E00082E461E041E00E94E0004D
:1006C00082E462E041E00E94E00082E463E041E015
:1006D0000E94E00082E46F2D40E00E94E00010E004
:1006E000012F0C5F82E4602F0E9477018823C1F400
:1006F0008FE39CE90197F1F700C0000082E4602FCE
:100700000E9477018823D1F3EF2DF0E0EE0FFF1F59
:10071000EE0FFF1FE10FF11DEC0FFD1F818104C0E3
:100720001F5F1430E9F60CC060960FB6F894DEBF78
:100730000FBECDBFDF91CF911F910F91FF90089514
:10074000F39494E0F91609F0B1CF8FEFEDCF81E487
:1007500060E041E00E94E0008FE99FE00197F1F73F
:1007600000C0000081E460E040E00E94E0008FE90A
:100770009FE00197F1F700C000000895682F83E41F
:100780000E94630181E462E040E00E94E0000E9478
:10079000A70308958FEF91EEA4E081509040A04010
:1007A000E1F700C0000083E461E00E94CC0081E436
:1007B00060E041E00E94490081E461E041E00E9484
:1007C000490081E462E041E00E94490081E461E087
:1007D00040E00E94E00088E30E94BE03AFECB7E077
:1007E0001197F1F700C000008EE00E94BE038FEC6D
:1007F00097E00197F1F700C0000081E00E94BE037E
:10080000AFE1BEE41197F1F700C0000086E00E945E
:10081000BE030895682F83E40E94630181E462E0CF
:1008200041E00E94E0000E94A7030895CF93DF9368
:10083000EC018881882331F021960E940A04899175
:100840008823D9F7DF91CF91089581E00E94BE03FC
:100850008FE19EE40197F1F700C00000089568322F
:1008600070F4813019F0823051F405C0862F805821
:100870000E94BE030895862F80540E94BE030895EF
:1008800060E070E080E090E40E948A058FE39DE0E4
:10089000A3E081509040A040E1F700C0000008951F
:1008A0002F923F924F925F926F927F928F929F9280
:1008B000AF92BF92DF92EF92FF920F931F93CF936D
:1008C000DF930E94CA030E94020380E290E00E942C
:1008D000FD028F3FA1F580E790E00E941604C1E27F
:1008E000D0E00E943F03182F8F3FD9F30E940A04E3
:1008F0008FE996E8A1E081509040A040E1F700C068
:1009000000006C2F685181E00E942F048AE20E944F
:100910000A048FE996E8A1E081509040A040E1F7F9
:1009200000C00000CE01612F0E94F5022196C53261
:10093000D105B9F680E290E060E00E94F50202E3A2
:100940000F2EFAE7AF2EF0E0BF2EF02D0F2EFAECAF
:10095000EF2EF0E0FF2EF02D0F2EFBE0DF2EF02D1E
:100960000F2EFBEC4F2EF0E05F2EF02D0F2EFCEC47
:100970002F2EF0E03F2EF02D0F2EF3EA8F2EF0E019
:100980009F2EF02D0F2EF2EB6F2EF0E07F2EF02D2C
:100990000E942504C5010E941604E7011D2D0E9436
:1009A0003F0388838F3FD9F30E940A048FE996E8BA
:1009B000A1E081509040A040E1F700C0000081E03C
:1009C000612F0E942F048AE20E940A048FE996E8B0
:1009D000A1E081509040A040E1F700C000001F5FFF
:1009E00021961F30E1F681E290E00E94FD02D701DE
:1009F0009C91891751F582E290E00E94FD02F2017C
:100A00009081891711F583E290E00E94FD02D101E7
:100A10009C918917D1F484E290E00E94FD02EDECF4
:100A2000F0E09081891789F40E94250486E890E01F
:100A30000E94160482E061E00E942F0484E990E0A5
:100A40000E9416040E94400431C0003309F10E9444
:100A50002504C4010E9416048FE39DE0A3E08150A9
:100A60009040A040E1F700C000000E942504C301AF
:100A70000E941604802F0E940A048FE39DE0A3E0E9
:100A800081509040A040E1F700C00000015080CFAD
:100A90000E94250483EA90E00E94160482E061E04F
:100AA0000E942F048EEB90E00E94160480E090E0FC
:100AB000DF91CF911F910F91FF90EF90DF90BF904A
:100AC000AF909F908F907F906F905F904F903F90EE
:100AD0002F90089583B7886083BF80E58CBF83B76C
:100AE000816083BF83B7846083BF789489B7826055
:100AF00089BF0895BB9A83B7886083BF80E48CBFA9
:100B000083B7816083BF83B7846083BF83B780610D
:100B100083BF08958D9A2FB522602FBD2EB5286012
:100B20002EBD2EB520612EBD20E030E04AE754E412
:100B30000E9413060E94BE05DC01CB019BBD8ABD4D
:100B40008FE19EE497BD86BD8EB581608EBD8FB569
:100B500080688FBD0895BB9A83B7806483BF80E4AB
:100B60008CBF83B7816083BF83B7846083BF83B743
:100B7000806183BF83B7806283BF089533D088F0DC
:100B80009F5790F0B92F9927B751A0F0D1F0660F79
:100B9000771F881F991F1AF0BA95C9F712C0B13094
:100BA00081F03AD0B1E0089537C0672F782F8827B9
:100BB000B85F39F0B93FCCF3869577956795B395D3
:100BC000D9F73EF490958095709561957F4F8F4F42
:100BD0009F4F089557FD9058440F551F59F05F3FA0
:100BE00071F04795880F97FB991F61F09F3F79F04F
:100BF00087950895121613061406551FF2CF4695D1
:100C0000F1DF08C0161617061806991FF1CF869552
:100C10007105610508940895E894BB276627772736
:100C2000CB0197F908950BD078C069D028F06ED029
:100C300018F0952309F05AC05FC01124EECFCADF27
:100C4000A0F3959FD1F3950F50E0551F629FF001DF
:100C5000729FBB27F00DB11D639FAA27F00DB11D38
:100C6000AA1F649F6627B00DA11D661F829F2227C1
:100C7000B00DA11D621F739FB00DA11D621F839F48
:100C8000A00D611D221F749F3327A00D611D231F1E
:100C9000849F600D211D822F762F6A2F11249F576C
:100CA00050408AF0E1F088234AF0EE0FFF1FBB1F8F
:100CB000661F771F881F91505040A9F79E3F51052E
:100CC00070F014C0AACF5F3FECF3983EDCF386953A
:100CD00077956795B795F795E7959F5FC1F7FE2BD9
:100CE000880F911D9695879597F9089597F99F67B5
:100CF00080E870E060E008959FEF80EC08950024A4
:100D00000A941616170618060906089500240A9470
:100D100012161306140605060895092E0394000CF6
:100D200011F4882352F0BB0F40F4BF2B11F460FF85
:100D300004C06F5F7F4F8F4F9F4F0895F894FFCF90
:100D40003738392F3435362A3132332D43303D2B65
:100D500053657420506173733A00636865636B2058
:100D6000706173733A007472756520706173737784
:100D70006F72640073616665206F70656E65645E96
:100D80002D5E0077726F6E672070617373776F727C
:100D900064007472696573206C6566743A007361EF
:0E0DA000666520636C6F73656400FF000000E1
:00000001FF
